:100000000C942A000C943C000C943C000C943C0092
:100010000C943C000C943C000C943C000C943C0070
:100020000C943C000C943C000C947E060C94B1069D
:100030000C943C000C943C000C943C000C943C0050
:100040000C943C000C943C000C943C000C943C0040
:100050000C943C0011241FBECFE5D4E0DEBFCDBF21
:1000600010E0A0E6B0E001C01D92A538B107E1F7AD
:100070000E94E4060C943E070C940000DF93CF939B
:10008000CDB7DEB728970FB6F894DEBF0FBECDBF51
:100090008A836B834C8319828B81883008F0F4C08B
:1000A0008C81882309F077C08A81282F30E0388737
:1000B0002F838F8198858130910559F12F81388563
:1000C000223031052CF48F819885009769F060C04B
:1000D0002F8138852230310589F18F8198858330D1
:1000E000910509F440C054C0ABE3B0E0EBE3F0E0AD
:1000F0008081482F8B81282F30E081E090E0022E14
:1001000002C0880F991F0A94E2F7809584238C938C
:10011000BDC0A8E3B0E0E8E3F0E08081482F8B8128
:10012000282F30E081E090E0022E02C0880F991F56
:100130000A94E2F7809584238C93A8C0A5E3B0E0ED
:10014000E5E3F0E08081482F8B81282F30E081E0CB
:1001500090E0022E02C0880F991F0A94E2F7809562
:1001600084238C9393C0A2E3B0E0E2E3F0E08081CB
:10017000482F8B81282F30E081E090E0022E02C0D2
:10018000880F991F0A94E2F7809584238C937EC090
:1001900081E089837BC08C81813009F072C08A81C3
:1001A000282F30E03E832D838D819E818130910503
:1001B00049F12D813E81223031052CF48D819E81C3
:1001C000009761F05BC02D813E812230310571F1D5
:1001D0008D819E8183309105E9F150C0ABE3B0E0A1
:1001E000EBE3F0E08081482F8B81282F30E081E025
:1001F00090E0022E02C0880F991F0A94E2F7842B28
:100200008C9344C0A8E3B0E0E8E3F0E08081482F9D
:100210008B81282F30E081E090E0022E02C0880F11
:10022000991F0A94E2F7842B8C9330C0A5E3B0E0C9
:10023000E5E3F0E08081482F8B81282F30E081E0DA
:1002400090E0022E02C0880F991F0A94E2F7842BD7
:100250008C931CC0A2E3B0E0E2E3F0E08081482F81
:100260008B81282F30E081E090E0022E02C0880FC1
:10027000991F0A94E2F7842B8C9308C081E089834C
:1002800005C081E0898302C081E089838981289645
:100290000FB6F894DEBF0FBECDBFCF91DF910895AA
:1002A000DF93CF93CDB7DEB728970FB6F894DEBFB4
:1002B0000FBECDBF8A836B834C8319828B818830BC
:1002C00008F0F4C08C81882309F077C08A81282F38
:1002D00030E038872F838F8198858130910559F1DF
:1002E0002F813885223031052CF48F819885009735
:1002F00069F060C02F8138852230310589F18F8106
:1003000098858330910509F440C054C0AAE3B0E059
:10031000EAE3F0E08081482F8B81282F30E081E0F4
:1003200090E0022E02C0880F991F0A94E2F7809590
:1003300084238C93BDC0A7E3B0E0E7E3F0E08081C5
:10034000482F8B81282F30E081E090E0022E02C000
:10035000880F991F0A94E2F7809584238C93A8C094
:10036000A4E3B0E0E4E3F0E08081482F8B81282F04
:1003700030E081E090E0022E02C0880F991F0A94BD
:10038000E2F7809584238C9393C0A1E3B0E0E1E38E
:10039000F0E08081482F8B81282F30E081E090E0D1
:1003A000022E02C0880F991F0A94E2F780958423D9
:1003B0008C937EC081E089837BC08C81813009F081
:1003C00072C08A81282F30E03E832D838D819E81EB
:1003D0008130910549F12D813E81223031052CF487
:1003E0008D819E81009761F05BC02D813E8122301E
:1003F000310571F18D819E8183309105E9F150C005
:10040000AAE3B0E0EAE3F0E08081482F8B81282F57
:1004100030E081E090E0022E02C0880F991F0A941C
:10042000E2F7842B8C9344C0A7E3B0E0E7E3F0E06D
:100430008081482F8B81282F30E081E090E0022ED0
:1004400002C0880F991F0A94E2F7842B8C9330C066
:10045000A4E3B0E0E4E3F0E08081482F8B81282F13
:1004600030E081E090E0022E02C0880F991F0A94CC
:10047000E2F7842B8C931CC0A1E3B0E0E1E3F0E051
:100480008081482F8B81282F30E081E090E0022E80
:1004900002C0880F991F0A94E2F7842B8C9308C03E
:1004A00081E0898305C081E0898302C081E089837E
:1004B000898128960FB6F894DEBF0FBECDBFCF91CD
:1004C000DF910895DF93CF93CDB7DEB727970FB6AF
:1004D000F894DEBF0FBECDBF8A836B835D834C83F0
:1004E00019828C819D81009709F47BC08B818830B3
:1004F00008F074C08A81282F30E03F832E834E811C
:100500005F814130510559F18E819F818230910583
:1005100034F42E813F812115310569F05CC04E8194
:100520005F814230510579F18E819F818330910541
:1005300009F43DC050C0E9E3F0E08081282F30E0AD
:100540008B81882F90E0A90102C0559547958A9527
:10055000E2F7CA018170EC81FD81808344C0E6E34B
:10056000F0E08081282F30E08B81882F90E0A90176
:1005700002C0559547958A95E2F7CA018170EC81D2
:10058000FD81808330C0E3E3F0E08081282F30E0FC
:100590008B81882F90E0A90102C0559547958A95D7
:1005A000E2F7CA018170EC81FD8180831CC0E0E329
:1005B000F0E08081282F30E08B81882F90E0A90126
:1005C00002C0559547958A95E2F7CA018170EC8182
:1005D000FD81808308C081E0898305C081E0898333
:1005E00002C082E08983898127960FB6F894DEBF26
:1005F0000FBECDBFCF91DF910895DF93CF9300D091
:1006000000D00F92CDB7DEB78A836B8319828A81BF
:10061000282F30E03D832C838C819D818130910592
:10062000D1F02C813D81223031052CF48C819D81CB
:10063000009761F01FC02C813D812230310581F08F
:100640008C819D818330910581F014C0EAE3F0E054
:100650008B81808311C0E7E3F0E08B8180830CC045
:10066000E4E3F0E08B81808307C0E1E3F0E08B817D
:10067000808302C081E0898389810F900F900F9061
:100680000F900F90CF91DF910895DF93CF9300D01B
:1006900000D00F92CDB7DEB78A836B8319828A812F
:1006A000282F30E03D832C838C819D818130910502
:1006B000D1F02C813D81223031052CF48C819D813B
:1006C000009761F01FC02C813D812230310581F0FF
:1006D0008C819D818330910581F014C0EBE3F0E0C3
:1006E0008B81808311C0E8E3F0E08B8180830CC0B4
:1006F000E5E3F0E08B81808307C0E2E3F0E08B81EB
:10070000808302C081E0898389810F900F900F90D0
:100710000F900F90CF91DF910895DF93CF9300D08A
:1007200000D000D0CDB7DEB78A836B8319828B816E
:10073000883008F074C08A81282F30E03E832D83F2
:100740008D819E818130910549F12D813E8122303C
:1007500031052CF48D819E81009761F05BC02D8165
:100760003E812230310571F18D819E81833091056A
:10077000E9F150C0ABE3B0E0EBE3F0E08081482F5B
:100780008B81282F30E081E090E0022E02C0880F9C
:10079000991F0A94E2F784278C933EC0A8E3B0E047
:1007A000E8E3F0E08081482F8B81282F30E081E062
:1007B00090E0022E02C0880F991F0A94E2F7842766
:1007C0008C932AC0A5E3B0E0E5E3F0E08081482FF8
:1007D0008B81282F30E081E090E0022E02C0880F4C
:1007E000991F0A94E2F784278C9316C0A2E3B0E025
:1007F000E2E3F0E08081482F8B81282F30E081E018
:1008000090E0022E02C0880F991F0A94E2F7842715
:100810008C9302C081E0898399819C8302C02981E5
:100820002C838C8126960FB6F894DEBF0FBECDBF09
:10083000CF91DF910895DF93CF93CDB7DEB7789452
:10084000CF91DF910895DF93CF93CDB7DEB7F894C2
:10085000CF91DF910895DF93CF93CDB7DEB70E949C
:10086000A5058AEF0E944B0621EC34E081E0B90136
:100870000E945906CF91DF910895DF93CF93CDB7B2
:10088000DEB728970FB6F894DEBF0FBECDBF8A83C0
:100890007C836B835E834D8338872F8319828F819E
:1008A0009885009709F461C08A81282F30E0C9013A
:1008B000880F991F880F991F880F991F821B930B10
:1008C000FC01EC59FF4F80819181009709F04AC0EB
:1008D0008A81282F30E0C901880F991F880F991F3E
:1008E000880F991F821B930BFC01E05AFF4F8B81ED
:1008F0009C81918380838A81282F30E0C901880FF1
:10090000991F880F991F880F991F821B930BFC0159
:10091000EC59FF4F8F819885918380838A81282F9E
:1009200030E0C901880F991F880F991F880F991F00
:10093000821B930BFC01EA59FF4F10828A81282FFA
:1009400030E0C901880F991F880F991F880F991FE0
:10095000821B930BFC01EE59FF4F8D819E81918389
:10096000808305C081E0898302C082E08983898118
:1009700028960FB6F894DEBF0FBECDBFCF91DF91A2
:100980000895DF93CF930F92CDB7DEB7198285C05C
:100990008981282F30E0C901880F991F880F991F7E
:1009A000880F991F821B930BFC01EC59FF4F80812C
:1009B0009181009709F46EC08981282F30E0C90128
:1009C000880F991F880F991F880F991F821B930BFF
:1009D000FC01EE59FF4F808191810097C9F5898113
:1009E000282F30E0C901880F991F880F991F880FA1
:1009F000991F821B930BFC01EC59FF4F0190F08172
:100A0000E02D09958981482F50E08981282F30E019
:100A1000C901880F991F880F991F880F991F821B82
:100A2000930BFC01E05AFF4F808191819C01215082
:100A30003040CA01880F991F880F991F880F991F8E
:100A4000841B950BFC01EE59FF4F3183208322C09C
:100A50008981282F30E0C901880F991F880F991FBD
:100A6000880F991F821B930BFC01EE59FF4F808169
:100A70009181AC0141505040C901880F991F880FE6
:100A8000991F880F991F821B930BFC01EE59FF4F92
:100A90005183408389818F5F89838981833008F402
:100AA00077CF0F90CF91DF910895DF93CF930F927F
:100AB000CDB7DEB789838981282F30E0C901880F3F
:100AC000991F880F991F880F991F821B930BFC0198
:100AD000EA59FF4F81E080830F90CF91DF91089515
:100AE000DF93CF930F92CDB7DEB789838981282F0B
:100AF00030E0C901880F991F880F991F880F991F2F
:100B0000821B930BFC01EA59FF4F10820F90CF918B
:100B1000DF910895DF93CF930F92CDB7DEB789832E
:100B20008981282F30E0C901880F991F880F991FEC
:100B3000880F991F821B930BFC01EC59FF4F118208
:100B400010820F90CF91DF910895DF93CF93CDB7AF
:100B5000DEB7A3E5B0E0E3E5F0E080818F7B8C9326
:100B6000A3E5B0E0E3E5F0E0808188608C93A9E53F
:100B7000B0E0E9E5F0E0808182608C93A3E5B0E02D
:100B8000E3E5F0E0808181608C93A3E5B0E0E3E5EC
:100B9000F0E0808182608C93A3E5B0E0E3E5F0E0D3
:100BA00080818B7F8C93CF91DF910895DF93CF93DA
:100BB000CDB7DEB7AFE4B0E0EFE4F0E080818E7F48
:100BC0008C93AFE4B0E0EFE4F0E080818D7F8C9314
:100BD000AEE4B0E0EEE4F0E08081877F8C93AEE499
:100BE000B0E0EEE4F0E080818F7E8C93AFE4B0E083
:100BF000EFE4F0E080818F7B8C93AFE4B0E0EFE432
:100C0000F0E0808180688C93AEE4B0E0EEE4F0E048
:100C1000808181608C93AEE4B0E0EEE4F0E080810E
:100C200082608C93AEE4B0E0EEE4F0E080818B7FF4
:100C30008C93CF91DF910895DF93CF9300D0CDB700
:100C4000DEB79A838983EAE4F0E089819A8191830F
:100C500080830F900F90CF91DF910895DF93CF9312
:100C600000D0CDB7DEB79A838983ECE4F0E08981C8
:100C70009A81918380830F900F90CF91DF91089597
:100C8000DF93CF93CDB7DEB7ECE4F0E080819181C4
:100C9000CF91DF910895DF93CF930F92CDB7DEB759
:100CA0008983ECE5F0E0898180830F90CF91DF911B
:100CB0000895DF93CF9300D000D0CDB7DEB78A83FD
:100CC0007C836B8319828B819C81009769F08A8178
:100CD000882F90E0880F991FFC01EB58FF4F8B8104
:100CE0009C819183808302C082E0898389810F90F7
:100CF0000F900F900F90CF91DF9108951F920F9258
:100D00000FB60F9211242F933F934F935F936F93DE
:100D10007F938F939F93AF93BF93EF93FF93DF9353
:100D2000CF93CDB7DEB78091770090917800009790
:100D300029F0E0917700F09178000995CF91DF914B
:100D4000FF91EF91BF91AF919F918F917F916F91A3
:100D50005F914F913F912F910F900FBE0F901F9079
:100D600018951F920F920FB60F9211242F933F9355
:100D70004F935F936F937F938F939F93AF93BF93A3
:100D8000EF93FF93DF93CF93CDB7DEB780917500DC
:100D900090917600009729F0E0917500F09176002F
:100DA0000995CF91DF91FF91EF91BF91AF919F9105
:100DB0008F917F916F915F914F913F912F910F9004
:100DC0000FBE0F901F901895DF93CF93CDB7DEB76E
:100DD00080E060E041E00E94500180E061E041E09D
:100DE0000E94500180E062E041E00E94500121E158
:100DF00037E080E068EE73E040E050E00E943D04A0
:100E000025E237E081E068EE73E044EF51E00E94B4
:100E10003D0481E00E9455050E942B040E941B04A2
:100E2000FFCFDF93CF93CDB7DEB780E060E00E94C5
:100E30008D0320E337E082E068EE73E048EE53E094
:100E40000E943D04CF91DF910895DF93CF93CDB7FA
:100E5000DEB780E061E00E948D03CF91DF910895BD
:100E6000DF93CF93CDB7DEB781E00E94700580E0BD
:100E700062E00E948D03CF91DF910895F894FFCF37
:00000001FF
